:020000040000FA
:0400000007EF00F016
:0A0008007E8252ED08F041EF1DF07A
:10100000005F5F2D5F5F2D5F5F202020202020206C
:101010002000005365742050617373776F72643AD7
:101020002020200000496E70757420506173737722
:101030006F72643A20000053757065725365637572
:10104000726553616665210000596F7520466169BC
:101050006C65642120202020200052423420746FCF
:10106000206C6F636B212020202000556E6C6F6315
:101070006B65643B20507265737320002020202034
:10108000202020202020202020005F5F2020202002
:101090002020200000585800005F5F00002D000055
:1010A000256400000600E1CFAAF0E2CFABF0D9CF73
:1010B000ACF0DACFADF0F3CFAEF0F4CFAFF0F6CFC7
:1010C000B0F0F7CFB1F0F8CFB2F0F5CFB3F0F2A2B5
:1010D0006CEF08F06EEF08F0F4EF09F0F292020EF8
:1010E0000001E119E211D8A478EF08F07AEF08F0D6
:1010F00084EF09F0DABF88EF08F0DA5107E1640EF7
:10110000D95DD8B086EF08F088EF08F084EF09F0D9
:10111000D8BF96EF08F0D85107E1640ED75DD8B07C
:1011200094EF08F096EF08F084EF09F0D6BFA2EF35
:1011300008F0D65109E1640ED55DD8A0A2EF08F001
:10114000A4EF08F0A6EF08F084EF09F0A451A51170
:10115000D8A4ADEF08F0AFEF08F0B5EF08F0000E3F
:10116000A56F050EA46F75EC1EF0020E0001A61906
:10117000A711D8A4BEEF08F0C0EF08F0FBEF08F00D
:10118000DB51D51907E1DC51D619D8A4CAEF08F014
:10119000CCEF08F0D0EF08F0C7EC1CF0FBEF08F044
:1011A000D107D8A0D207D151D211D8A4DAEF08F0D4
:1011B000DCEF08F0DEEF08F01BEC1DF00001D105BC
:1011C000D211D8A4E6EF08F0E8EF08F0EDEF08F050
:1011D000828A000EA36F010EA26F020ED119D211E6
:1011E000D8A4F5EF08F0F7EF08F0FBEF08F0000ED9
:1011F0009D6F010E9C6F0001A605A711D8A403EFF7
:1012000009F005EF09F040EF09F0DD51D71907E1CA
:10121000DE51D819D8A40FEF09F011EF09F015EF3E
:1012200009F0A64BA72B40EF09F0D107D8A0D207B1
:10123000D151D211D8A41FEF09F021EF09F023EF0B
:1012400009F01BEC1DF00001D105D211D8A42BEF41
:1012500009F02DEF09F032EF09F0828A000EA36F3A
:10126000010EA26F020ED119D211D8A43AEF09F0E3
:101270003CEF09F040EF09F0000E9D6F010E9C6FEE
:10128000A651A711D8A447EF09F049EF09F084EF60
:1012900009F0DF51D91907E1E051DA19D8A453EF69
:1012A00009F055EF09F059EF09F0A64BA72B84EF91
:1012B00009F0D107D8A0D207D151D211D8A463EF39
:1012C00009F065EF09F067EF09F01BEC1DF0000174
:1012D000D105D211D8A46FEF09F071EF09F076EFC4
:1012E00009F0828A000EA36F010EA26F020ED119BF
:1012F000D211D8A47EEF09F080EF09F084EF09F055
:10130000000E9D6F010E9C6FE105E211D8A48BEFDA
:1013100009F08DEF09F065EF0DF0E0BF9BEF09F0EC
:10132000E05107E1640EDF5DD8B099EF09F09BEF63
:1013300009F0F2EF09F0DEBFA9EF09F0DE5107E195
:10134000640EDD5DD8B0A7EF09F0A9EF09F0F2EF68
:1013500009F0DCBFB5EF09F0DC5109E1640EDB5D9B
:10136000D8A0B5EF09F0B7EF09F0B9EF09F065EFD4
:101370000DF0A64BA72B030EA619A711D8A4C3EFF7
:1013800009F0C5EF09F0F2EF09F0000EE26F020E6E
:10139000E16F000EA76F000EA66F010E036E010E27
:1013A000DDEC1DF0250E056E100E066EA5EC1BF093
:1013B000020E036E040EDDEC1DF0990E056E100E8C
:1013C000066EA5EC1BF0020E036E070EDDEC1DF0A1
:1013D0008A0E056E100E066EA5EC1BF0A9EC1EF031
:1013E00065EF0DF065EF0DF09EACF9EF09F0FBEF46
:1013F00009F059EF0CF09E9CC4500001A96FA86B36
:10140000C350A825BC6F000EA921BD6F000E2C6E25
:10141000C00E2D6E7F0E2E6E440E2F6E000E136EBC
:10142000000E146EA00E156E400E166EBCC001F0BC
:10143000BDC002F0000E02BEFF0E036E046E010E70
:1014400087EC16F001C00FF002C010F003C011F0DD
:1014500004C012F07BEC0DF00FC028F010C029F092
:1014600011C02AF012C02BF090EC0FF028C0B8F099
:1014700029C0B9F02AC0BAF02BC0BBF0B8C00FF039
:10148000B9C010F0BAC011F0BBC012F0000E136E5C
:10149000000E146EC80E156E420E166E7BEC0DF02B
:1014A0000FC0B4F010C0B5F011C0B6F012C0B7F064
:1014B000BCC001F0BDC002F0000E046E0A0E036E47
:1014C000E4EC1AF001C0BCF002C0BDF00001E1057F
:1014D000E211D8A46EEF0AF070EF0AF008EF0BF0FB
:1014E000A651A711D8A477EF0AF079EF0AF093EF8D
:1014F0000AF0DF51BC1909E1E051BD19D8B483EFFE
:101500000AF085EF0AF093EF0AF0BCC0DFF0BDC02F
:10151000E0F0000E676E010E666EDFC068F0E0C09E
:1015200069F05DEC11F00001A605A711D8A49BEFAE
:101530000AF09DEF0AF0E3EF0AF0BDBFA9EF0AF051
:10154000BD5109E1640EBC5DD8A0A9EF0AF0ABEF74
:101550000AF0C5EF0AF0650EDD19DE11D8B4B3EF5D
:101560000AF0B5EF0AF0E3EF0AF0000EDE6F650E49
:10157000DD6F000E676E020E666EDDC068F0DEC0C5
:1015800069F05DEC11F0E3EF0AF0640EA86F000E55
:10159000A96FBC51A85FBD51A95BDD51A81909E134
:1015A000DE51A919D8B4D7EF0AF0D9EF0AF0E3EF6A
:1015B0000AF0BC516408DD6FBD51D8A0E82A0008CC
:1015C000DE6FB9EF0AF0020E0001A619A711D8A428
:1015D000ECEF0AF0EEEF0AF008EF0BF0BC51DB196C
:1015E00009E1BD51DC19D8B4F8EF0AF0FAEF0AF0BE
:1015F00008EF0BF0BCC0DBF0BDC0DCF0000E676E86
:10160000030E666EDBC068F0DCC069F05DEC11F0C3
:10161000020E0001E119E211D8A411EF0BF013EF53
:101620000BF065EF0DF0A251A311D8B41AEF0BF037
:101630001CEF0BF046EF0BF0A051A111D8B423EF33
:101640000BF025EF0BF046EF0BF0000EA16F000E34
:10165000A06F000E016E000E026E200E036E420E91
:10166000046EB4C005F0B5C006F0B6C007F0B7C050
:1016700008F09AEC19F0D8B040EF0BF042EF0BF005
:1016800065EF0DF01BEC1DF065EF0DF0000EA16F86
:10169000010EA06FA651A711D8A451EF0BF053EF84
:1016A0000BF09CEF0BF0D951BC1909E1DA51BD19CF
:1016B000D8B45DEF0BF05FEF0BF09CEF0BF0D92986
:1016C00008E1DA29D8B467EF0BF069EF0BF078EF97
:1016D0000BF0A451A511D8A470EF0BF072EF0BF032
:1016E00078EF0BF0000EA56F050EA46F75EC1EF0E1
:1016F000BCC0D9F0BDC0DAF0000E676E010E666E98
:10170000D9C068F0DAC069F05DEC11F0020E036E2A
:10171000040EDDEC1DF0990E056E100E066EA5ECA4
:101720001BF0020E036E070EDDEC1DF0990E056E28
:10173000100E066EA5EC1BF00001A605A711D8A49B
:10174000A4EF0BF0A6EF0BF01EEF0CF0BDBFB2EF55
:101750000BF0BD5109E1640EBC5DD8A0B2EF0BF0F7
:10176000B4EF0BF0E3EF0BF0650ED719D811D8B436
:10177000BCEF0BF0BEEF0BF01EEF0CF0000ED86FBD
:10178000650ED76F000E676E020E666ED7C068F0EA
:10179000D8C069F05DEC11F0000E676E010E666E48
:1017A000D9C068F0DAC069F05DEC11F0020E036E8A
:1017B000070EDDEC1DF0990E056E100E066EA5EC01
:1017C0001BF01EEF0CF0640EA86F000EA96FBC5149
:1017D000A85FBD51A95BD751A81909E1D851A91932
:1017E000D8B4F5EF0BF0F7EF0BF01EEF0CF0BC5197
:1017F0006408D76FBD51D8A0E82A0008D86F000E42
:10180000676E020E666ED7C068F0D8C069F05DECF6
:1018100011F0000E676E010E666ED9C068F0DAC076
:1018200069F05DEC11F0020E036E070EDDEC1DF0A9
:10183000990E056E100E066EA5EC1BF0020E00014F
:10184000A619A711D8A427EF0CF029EF0CF0F2EF9E
:1018500009F0D551BC1909E1D651BD19D8B433EFFF
:101860000CF035EF0CF0F2EF09F0BCC0D5F0BDC0C4
:10187000D6F0000E676E030E666ED5C068F0D6C057
:1018800069F05DEC11F0000E676E020E666ED7C057
:1018900068F0D8C069F05DEC11F0000E676E010EC3
:1018A000666ED9C068F0DAC069F05DEC11F065EFE2
:1018B0000DF0F2A45EEF0CF060EF0CF0A7EF0CF06F
:1018C000F294020E0001E119E211D8A46AEF0CF0C3
:1018D0006CEF0CF065EF0DF0600ED76E600ED66EFB
:1018E0009E4B9F2B9C519D11D8B479EF0CF07BEF50
:1018F0000CF087EF0CF081AC80EF0CF082EF0CF075
:1019000086EF0CF0000E816E87EF0CF081689FBFB0
:1019100093EF0CF09F5109E1020E9E5DD8A093EF6A
:101920000CF095EF0CF065EF0DF0000E9F6F000EC0
:101930009E6FD307D8A0D407D351D411D8A4A3EF56
:101940000CF0A5EF0CF0F2EF09F042EF0BF09EA0C7
:10195000ACEF0CF0AEEF0CF004EF0DF09E90D70E54
:10196000CF6ED70ECE6E020E0001E119E211D8A49F
:10197000BCEF0CF0BEEF0CF065EF0DF049EC14F08D
:10198000020E0001C919CA11D8A4C9EF0CF0CBEF9F
:101990000CF0D0EF0CF0CFC083FF80868098809A47
:1019A000030EC919CA11D8A4D8EF0CF0DAEF0CF065
:1019B000DFEF0CF0CDC083FF80968088809A040E04
:1019C000C919CA11D8A4E7EF0CF0E9EF0CF0EEEF5B
:1019D0000CF0CBC083FF80968098808AC94BCA2BBD
:1019E000CABFFCEF0CF0CA5109E1050EC95DD8A0D1
:1019F000FCEF0CF0FEEF0CF065EF0DF0000ECA6F7F
:101A0000020EC96F65EF0DF0F2A009EF0DF00BEFBC
:101A10000DF065EF0DF0F290030E0001E119E211F7
:101A2000D8A415EF0DF017EF0DF065EF0DF081B8AC
:101A30001CEF0DF01EEF0DF065EF0DF0F296000EAD
:101A4000E26F020EE16F000ED46F5A0ED36F000EDC
:101A5000D26F030ED16FD969DA69D769D869D569B0
:101A6000D669000EA76F000EA66F000EA56F000EC0
:101A7000A46F000EA36F000EA26F000EA16F000EE8
:101A8000A06F000E9D6F000E9C6F000E9F6F000EEA
:101A90009E6F010E936E000E816E010E036E010E9D
:101AA000DDEC1DF0250E056E100E066EA5EC1BF08C
:101AB000020E036E010EDDEC1DF0010E056E100E20
:101AC000066EA5EC1BF0EEEF09F0B3C0F5FFB2C057
:101AD000F8FFB1C0F7FFB0C0F6FFAFC0F4FFAEC073
:101AE000F3FFADC0DAFFACC0D9FFABC0E2FFAAC0C4
:101AF000E1FF7E9211001250800B1B6E12501224D7
:101B0000216E11AE86EF0DF088EF0DF089EF0DF02C
:101B100021802150D8B48FEF0DF091EF0DF0A4EF9C
:101B20000DF02128D8A497EF0DF099EF0DF0A1EF5B
:101B30000DF0000E0F6E000E106E000E116E000EF6
:101B4000126E118EACEF0DF0000E0F6E000E106EC7
:101B5000000E116E000E126E1650800B1B1A1650DE
:101B60001624206E15AEB7EF0DF0B9EF0DF0BAEFF9
:101B70000DF020802050D8B4C0EF0DF0C2EF0DF072
:101B8000D5EF0DF02028D8A4C8EF0DF0CAEF0DF066
:101B9000D2EF0DF0000E136E000E146E000E156ED7
:101BA000000E166E158EDDEF0DF0000E136E000E9A
:101BB000146E000E156E000E166E2050D8B4E3EFB2
:101BC0000DF0E5EF0DF0EDEF0DF02150D8A4EBEFA7
:101BD0000DF0EDEF0DF0F7EF0DF0000E0F6E000EB3
:101BE000106E000E116E000E126E8FEF0FF015507A
:101BF0000F02F3CF26F0F4CF27F026501C6E1D6A9B
:101C00001E6A1F6A2750226E236A246A256A1450AE
:101C10001002F3CF26F0F4CF27F026501C26000E3A
:101C20001D221E221F2227502226000E232224229C
:101C3000252213501102F3CF26F0F4CF27F02650BF
:101C40001C26000E1D221E221F2227502226000EB7
:101C50002322242225221EC01FF01DC01EF01CC0FE
:101C60001DF01C6A13501002F3CF26F0F4CF27F0BA
:101C700026501C2627501D22000E1E22000E1F2259
:101C800014500F02F3CF26F0F4CF27F026501C2675
:101C900027501D22000E1E22000E1F221EC01FF004
:101CA0001DC01EF01CC01DF01C6A13500F02F3CFA4
:101CB00026F0F4CF27F026501C2627501D22000EB8
:101CC0001E22000E1F2215501002F3CF26F0F4CF73
:101CD00027F02650222627502322000E2422000E11
:101CE000252214501102F3CF26F0F4CF27F026500E
:101CF000222627502322000E2422000E25221550D2
:101D00001102F3CF26F0F4CF27F02650176E27509C
:101D1000186E196A1A6A19C01AF018C019F017C09B
:101D200018F0176A1750222618502322195024221F
:101D30001A5025221CC017F01DC018F01EC019F043
:101D40001FC01AF0190EAAEF0EF0D8901A321932ED
:101D500018321732E82EA5EF0EF017502226185031
:101D60002322195024221A5025221EC01FF01DC004
:101D70001EF01CC01DF01C6A205021C017F0186A0C
:101D80001726000E1822820E1724266EFF0E18202A
:101D9000276EE0EF0EF0D890223623362436253613
:101DA0001FAED5EF0EF0D7EF0EF0D8EF0EF0228079
:101DB000D8901C361D361E361F362606D8A027069C
:101DC00024AEE5EF0EF0E7EF0EF0CBEF0EF0000ED5
:101DD000206E1FAEEEEF0EF0F0EF0EF014EF0FF0EE
:101DE000FF0E1C14176EFF0E1D14186EFF0E1E142E
:101DF000196E7F0E1F141A6E1750181019101A1032
:101E0000D8B405EF0FF007EF0FF00BEF0FF0010E56
:101E1000206E14EF0FF022A010EF0FF012EF0FF072
:101E200014EF0FF007EF0FF02050D8B41AEF0FF0B7
:101E30001CEF0FF040EF0FF0010E2226000E2322C0
:101E40002422252225A027EF0FF029EF0FF040EFE5
:101E50000FF022C017F023C018F024C019F025C0DD
:101E60001AF01A341A3219321832173217C022F007
:101E700018C023F019C024F01AC025F0264A272ADA
:101E800027BE4BEF0FF0275008E12628D8A04BEFD4
:101E90000FF04DEF0FF057EF0FF0000E226E000E17
:101EA000236E800E246E7F0E256E85EF0FF027BE09
:101EB00064EF0FF0275006E12604D8B062EF0FF070
:101EC00064EF0FF070EF0FF0000E226E000E236E25
:101ED000000E246E000E256E000E1B6E85EF0FF0B7
:101EE00026C021F0FF0E2216FF0E23167F0E2416A9
:101EF000000E251621A07FEF0FF081EF0FF082EF8B
:101F00000FF0248ED8902130256E1B50251222C050
:101F10000FF023C010F024C011F025C012F0120001
:101F20002B50800B386E2B502B243F6E2AAE9BEF2C
:101F30000FF09DEF0FF09EEF0FF03F803F50D8B4B1
:101F4000A4EF0FF0A6EF0FF0BBEF0FF03F28D8A4DF
:101F5000ACEF0FF0AEEF0FF0B6EF0FF0000E286E03
:101F6000000E296E000E2A6E000E2B6E2A8E000EB9
:101F70002B6EC3EF0FF0000E286E000E296E000EC0
:101F80002A6E000E2B6E2F50800B381A2F502F24E4
:101F9000406E2EAECEEF0FF0D0EF0FF0D1EF0FF07E
:101FA00040804050D8B4D7EF0FF0D9EF0FF0EEEFEC
:101FB0000FF04028D8A4DFEF0FF0E1EF0FF0E9EFCA
:101FC0000FF0000E2C6E000E2D6E000E2E6E000E09
:101FD0002F6E2E8E000E2F6EF6EF0FF0000E2C6E71
:101FE000000E2D6E000E2E6E000E2F6E2C502D103A
:101FF0002E102F10D8A4FFEF0FF001EF10F019EF03
:1020000010F0000E286E000E296E000E2A6E000ED3
:102010002B6E800E2A127F0E2B1238502B1228C0E6
:1020200028F029C029F02AC02AF02BC02BF05CEF41
:1020300011F03F50D8A41FEF10F021EF10F02BEF5C
:1020400010F0000E286E000E296E000E2A6E000E93
:102050002B6E5CEF11F040503FC030F0316A305EC3
:10206000000E315A7F0E3024396E000E31203A6E48
:1020700028C034F029C035F02AC036F02BC037F024
:10208000000E286E000E296E000E2A6E000E2B6EBA
:10209000000E3B6E000E3C6E000E3D6E000E3E6E5E
:1020A000000E406E8CEF10F04050D8B45AEF10F094
:1020B0005CEF10F073EF10F0D890343635363636CA
:1020C0003736D890283629362A362B363EAE6BEF77
:1020D00010F06DEF10F06EEF10F02880D8903B36C6
:1020E0003C363D363E362C50345C2D5035582E5003
:1020F00036582F503758D8A080EF10F082EF10F0EC
:102100008BEF10F03E8C2C50345E2D50355A2E50F3
:10211000365A2F50375A402A190E406492EF10F069
:1021200094EF10F054EF10F0345035103610371093
:10213000D8B49DEF10F09FEF10F0B7EF10F03B8098
:10214000B7EF10F0D890283629362A362B363EAE17
:10215000ACEF10F0AEEF10F0AFEF10F02880D89099
:102160003B363C363D363E363906D8A03A062AAED6
:10217000BCEF10F0BEEF10F0A2EF10F0000E406EBA
:102180003EAEC5EF10F0C7EF10F0EBEF10F0FF0E12
:102190003B14306EFF0E3C14316EFF0E3D14326E58
:1021A0007F0E3E14336E3050311032103310D8B4DD
:1021B000DCEF10F0DEEF10F0E2EF10F0010E406EF9
:1021C000EBEF10F028A0E7EF10F0E9EF10F0EBEFE5
:1021D00010F0DEEF10F04050D8B4F1EF10F0F3EF54
:1021E00010F017EF11F0010E2826000E29222A22E6
:1021F0002B222BA0FEEF10F000EF11F017EF11F0E3
:1022000028C030F029C031F02AC032F02BC033F0A2
:102210003334333232323132303230C028F031C0D0
:1022200029F032C02AF033C02BF0394A3A2A3ABE9C
:1022300022EF11F03A5008E13928D8A022EF11F02E
:1022400024EF11F02FEF11F0000E3A6E3968000EF6
:10225000286E000E296E000E2A6E000E2B6E3ABEFE
:102260003CEF11F03A5006E13904D8B03AEF11F0E2
:102270003CEF11F04AEF11F0000E3A6E000E396E8D
:10228000000E286E000E296E000E2A6E000E2B6EB8
:10229000000E386E39C03FF03FA051EF11F053EF00
:1022A00011F056EF11F02A8E57EF11F02A9ED890B8
:1022B0003F302B6E0DEF10F01200682806E1692800
:1022C000D8A465EF11F067EF11F0ABEF11F06604E1
:1022D0006710D8A46EEF11F070EF11F07DEF11F0E0
:1022E000020E036E010EDDEC1DF0990E056E100E50
:1022F000066EA5EC1BF0D6EF12F0020E6618671002
:10230000D8A485EF11F087EF11F094EF11F0020ED1
:10231000036E040EDDEC1DF0990E056E100E066EB8
:10232000A5EC1BF0D6EF12F0030E66186710D8A4C8
:102330009CEF11F09EEF11F0ABEF11F0020E036E67
:10234000070EDDEC1DF0990E056E100E066EA5EC65
:102350001BF0D6EF12F069BEB7EF11F0695009E13A
:10236000640E685CD8A0B7EF11F0B9EF11F0FDEF83
:1023700011F066046710D8A4C0EF11F0C2EF11F09D
:10238000CFEF11F0020E036E010EDDEC1DF0950E85
:10239000056E100E066EA5EC1BF0D6EF12F0020EC5
:1023A00066186710D8A4D7EF11F0D9EF11F0E6EF57
:1023B00011F0020E036E040EDDEC1DF0950E056E9D
:1023C000100E066EA5EC1BF0D6EF12F0030E661889
:1023D0006710D8A4EEEF11F0F0EF11F0FDEF11F05F
:1023E000020E036E070EDDEC1DF0950E056E100E4D
:1023F000066EA5EC1BF0D6EF12F020EE8AF010EE80
:1024000074F0090EDBCFE3FFE806FCE220EE80F07B
:1024100010EE6AF0090EDBCFE3FFE806FCE2740E73
:10242000586E000E596EA00E5A6E100E5B6E68C08C
:102430005CF069C05DF0F4EC1CF06A0E586E000EA2
:10244000596EA00E5A6E100E5B6E000E5D6E000E81
:102450005C6EF4EC1CF069BE39EF12F0695007E1D4
:102460000A0E685CD8B037EF12F039EF12F09EEF29
:1024700012F066046710D8A440EF12F042EF12F099
:102480005AEF12F0020E036E010EDDEC1DF06A0E23
:10249000056E000E066EA5EC1BF0020E036E020E1A
:1024A000DDEC1DF0740E056E000E066EA5EC1BF043
:1024B000D6EF12F0020E66186710D8A462EF12F081
:1024C00064EF12F07CEF12F0020E036E040EDDECEE
:1024D0001DF06A0E056E000E066EA5EC1BF0020ED6
:1024E000036E050EDDEC1DF0740E056E000E066E1B
:1024F000A5EC1BF0D6EF12F0030E66186710D8A4F7
:1025000084EF12F086EF12F0D6EF12F0020E036E97
:10251000070EDDEC1DF06A0E056E000E066EA5ECD2
:102520001BF0020E036E080EDDEC1DF0740E056E3E
:10253000000E066EA5EC1BF0D6EF12F066046710D5
:10254000D8A4A5EF12F0A7EF12F0B4EF12F0020E2C
:10255000036E010EDDEC1DF0740E056E000E066EAE
:10256000A5EC1BF0D6EF12F0020E66186710D8A487
:10257000BCEF12F0BEEF12F0C5EF12F0020E036EC8
:10258000040EDDEC1DF0ACEF12F0030E66186710C0
:10259000D8A4CDEF12F0CFEF12F0D6EF12F0020E6A
:1025A000036E070EDDEC1DF0ACEF12F012001EC042
:1025B00036F01FC037F020C038F021C039F022C0FB
:1025C0003AF023C03BF024C03CF025C03DF03DBEB6
:1025D000ECEF12F0EFEF12F0010EF0EF12F0000E40
:1025E000346E356A34503510D8B4F9EF12F0FBEF81
:1025F00012F00BEF13F03D1E3C1E3B1E3A1E391E1F
:10260000381E371E366C000E3722382239223A2205
:102610003B223C223D22000199BF11EF13F013EF42
:1026200013F014EF13F09A9399BF21EF13F099511F
:1026300006E19805D8B01FEF13F021EF13F027EF54
:1026400013F0000E316E010E306E2BEF13F098C0B8
:1026500030F099C031F096C032F097C033F034506A
:102660003510D8A436EF13F038EF13F03FEF13F026
:102670009AA53DEF13F03FEF13F042EF13F032064F
:10268000D8A03306000E3F6E1F0E3E6E000E0101F5
:102690001F6FC7EF13F03E06D8A03F06000E3E2482
:1026A000D96E010E3F20DA6E36C001F037C002F05D
:1026B00038C003F039C004F03AC005F03BC006F062
:1026C0003CC007F03DC008F00A0E096E000E0A6E0D
:1026D000000E0B6E000E0C6E000E0D6E000E0E6ED8
:1026E000000E0F6E000E106EE8EC18F001C026F020
:1026F00002C027F003C028F004C029F005C02AF06A
:1027000006C02BF007C02CF008C02DF026C013F037
:1027100028C014F086EC1DF01350300FDF6E300629
:10272000D8A031063206D8A0330636C001F037C033
:1027300002F038C003F039C004F03AC005F03BC0E5
:1027400006F03CC007F03DC008F00A0E096E000E0E
:102750000A6E000E0B6E000E0C6E000E0D6E000E5B
:102760000E6E000E0F6E000E106E61EC17F001C0C1
:1027700036F002C037F003C038F004C039F005C0AD
:102780003AF006C03BF007C03CF008C03DF03FBE49
:10279000D2EF13F03F5008E13E04D8A0D2EF13F07F
:1027A000D4EF13F005EF14F036503710381039100D
:1027B0003A103B103C103D10D8A4E1EF13F0E3EFCA
:1027C00013F04BEF13F031BEF0EF13F0315006E190
:1027D0003004D8B0EEEF13F0F0EF13F04BEF13F03E
:1027E00033BEFBEF13F0335008E13204D8A0FBEF07
:1027F00013F0FDEF13F005EF14F000019AB303EFAF
:1028000014F005EF14F04BEF13F034503510D8A44A
:102810000CEF14F00EEF14F016EF14F000019AA56F
:1028200014EF14F016EF14F034EF14F03E06D8A0B5
:102830003F0634503510D8A420EF14F022EF14F0E6
:1028400028EF14F0000E2F6E2B0E2E6E2CEF14F0CE
:10285000000E2F6E2D0E2E6E000E3E24D96E010E30
:102860003F20DA6E2EC0DFFF1CC011F01DC012F039
:10287000000E3E24136E010E3F20146E32C015F080
:1028800033C016F081EC1AF011C01CF012C01DF01C
:102890001200030E0001D119D211D8A452EF14F086
:1028A00054EF14F058EF14F0000ED06F490ECF6FB4
:1028B000020ED119D211D8A460EF14F062EF14F017
:1028C00066EF14F0000ED06F480ECF6FD105D21115
:1028D000D8A46DEF14F06FEF14F073EF14F0000E46
:1028E000D06F080ECF6FD3C001F0D4C002F0000E3D
:1028F000046E0A0E036EE4EC1AF001C0CDF002C0C3
:10290000CEF0D3C001F0D4C002F0000E046E0A0E67
:10291000036E01EC1CF001C0CBF002C0CCF0090E3C
:102920000001CD19CE11D8A498EF14F09AEF14F04D
:102930009EEF14F0000E0A6E6F0E096E080ECD1990
:10294000CE11D8A4A6EF14F0A8EF14F0ACEF14F059
:10295000000E0A6E7F0E096E070ECD19CE11D8A497
:10296000B4EF14F0B6EF14F0BAEF14F0000E0A6EE4
:10297000070E096E060ECD19CE11D8A4C2EF14F0C1
:10298000C4EF14F0C8EF14F0000E0A6E7D0E096E4D
:10299000050ECD19CE11D8A4D0EF14F0D2EF14F05B
:1029A000D6EF14F0000E0A6E6D0E096E040ECD19EE
:1029B000CE11D8A4DEEF14F0E0EF14F0E4EF14F041
:1029C000000E0A6E660E096E030ECD19CE11D8A444
:1029D000ECEF14F0EEEF14F0F2EF14F0000E0A6ECC
:1029E0004F0E096E020ECD19CE11D8A4FAEF14F0D5
:1029F000FCEF14F000EF15F0000E0A6E5B0E096E8E
:102A0000CD05CE11D8A407EF15F009EF15F00DEFA5
:102A100015F0000E0A6E060E096ECD51CE11D8A427
:102A200014EF15F016EF15F01AEF15F0000E0A6E00
:102A30003F0E096E090ECB19CC11D8A422EF15F068
:102A400024EF15F028EF15F0000E0C6E6F0E0B6ED4
:102A5000080ECB19CC11D8A430EF15F032EF15F0D9
:102A600036EF15F0000E0C6E7F0E0B6E070ECB19B5
:102A7000CC11D8A43EEF15F040EF15F044EF15F05F
:102A8000000E0C6E070E0B6E060ECB19CC11D8A4DF
:102A90004CEF15F04EEF15F052EF15F0000E0C6EE6
:102AA0007D0E0B6E050ECB19CC11D8A45AEF15F084
:102AB0005CEF15F060EF15F0000E0C6E6D0E0B6EF6
:102AC000040ECB19CC11D8A468EF15F06AEF15F0FD
:102AD0006EEF15F0000E0C6E660E0B6E030ECB192A
:102AE000CC11D8A476EF15F078EF15F07CEF15F047
:102AF000000E0C6E4F0E0B6E020ECB19CC11D8A42B
:102B000084EF15F086EF15F08AEF15F0000E0C6ECD
:102B10005B0E0B6ECB05CC11D8A491EF15F093EFA3
:102B200015F097EF15F0000E0C6E060E0B6ECB51E4
:102B3000CC11D8A49EEF15F0A0EF15F0A4EF15F07E
:102B4000000E0C6E3F0E0B6E09C0CDF00AC0CEF029
:102B50000BC0CBF00CC0CCF0120042C0D9FF43C078
:102B6000DAFFDECFF6FFDDCFF7FF0800F550250ACC
:102B7000D8A4BDEF15F0BFEF15F06BEF16F042C013
:102B8000D9FF43C0DAFFDE2A000EDD22000E00016D
:102B9000976F000E966F96C09AF097C09BF0986959
:102BA000996942C0D9FF43C0DAFFDECFF6FFDDCF1F
:102BB000F7FF0800F550640AD8B4E1EF15F0E3EF31
:102BC00015F0F5EF15F042C0D9FF43C0DAFFDECFB4
:102BD000F6FFDDCFF7FF0800F550690AD8A4F3EF40
:102BE00015F0F5EF15F035EF16F042C0D9FF43C0F0
:102BF000DAFFDE2A000EDD2244C0D9FF45C0DAFF2D
:102C0000DFCF46F0020EDE26DFCF47F0000EDD22DA
:102C100046C0D9FF47C0DAFFDECF48F0DDCF49F02C
:102C2000000E49BEFF0E4A6E4B6E4C6E4D6E4E6EE0
:102C30004F6E40C01CF041C01DF048C01EF049C09E
:102C40001FF04AC020F04BC021F04CC022F04DC014
:102C500023F04EC024F04FC025F0D7EC12F01CC07A
:102C600040F01DC041F086EF16F042C0D9FF43C0CE
:102C7000DAFFDECFF6FFDDCFF7FF0800F550250ABB
:102C8000D8A445EF16F047EF16F05EEF16F042C0FD
:102C9000D9FF43C0DAFFDE2A000EDD22000E026EED
:102CA000250E016E40C003F041C004F01CEC1AF088
:102CB000000E416E010E406E86EF16F042C0D9FF45
:102CC00043C0DAFFDE2A000EDD22000E416E000E48
:102CD000406E86EF16F042C0D9FF43C0DAFFDECF68
:102CE000F6FFDDCFF7FF0800F550016E026A40C025
:102CF00003F041C004F01CEC1AF042C0D9FF43C0FD
:102D0000DAFFDE2A000EDD2258EF16F01200096EFF
:102D10000950D8B48EEF16F090EF16F0B2EF16F01F
:102D200004BE97EF16F095EF16F0B2EF16F001C063
:102D300005F002C006F003C007F004C008F0051E4D
:102D4000061E071E081E052A000E0622072208225C
:102D500005C00BF006C00CF007C00DF008C00EF067
:102D6000BAEF16F001C00BF002C00CF003C00DF07A
:102D700004C00EF00150021003100410D8A4C3EFD9
:102D800016F0C5EF16F0CFEF16F0000E016E000E34
:102D9000026E000E036E000E046E60EF17F0960ECA
:102DA0000A6ED9EF16F00A2AD8900E320D320C3284
:102DB0000B32000E0B14056E000E0C14066E000E86
:102DC0000D14076EFE0E0E14086E05500610071047
:102DD0000810D8A4EEEF16F0F0EF16F0D3EF16F0CF
:102DE000FEEF16F00A2A010E0B26000E0C220D2211
:102DF0000E22D8900E320D320C320B32000E0B1414
:102E0000056E000E0C14066E000E0D14076EFF0EFC
:102E10000E14086E0550061007100810D8A413EF02
:102E200017F015EF17F0F2EF16F01DEF17F00A0686
:102E3000D8900B360C360D360E360DBE22EF17F03D
:102E400024EF17F02CEF17F0020E0A602AEF17F0AC
:102E50002CEF17F017EF17F00AB031EF17F033EF40
:102E600017F034EF17F00D9ED8900A320AC005F023
:102E7000066A076A086A05C008F0076A066A056AF2
:102E800005500B1206500C1207500D1208500E126E
:102E90000950D8B44EEF17F050EF17F058EF17F075
:102EA00004BE57EF17F055EF17F058EF17F00E8EDE
:102EB0000BC001F00CC002F00DC003F00EC004F016
:102EC0001200000E126E10BE6AEF17F068EF17F0D6
:102ED0007CEF17F0101E0F1E0E1E0D1E0C1E0B1E7B
:102EE0000A1E096C000E0A220B220C220D220E2251
:102EF0000F221022010E126E08BE83EF17F081EF31
:102F000017F095EF17F0081E071E061E051E041E7B
:102F1000031E021E016C000E02220322042205225F
:102F2000062207220822010E121A20EE13F0070EC5
:102F3000DE6AE806FDE209500A100B100C100D10B5
:102F40000E100F101010D8B4A8EF17F0AAEF17F05A
:102F5000FCEF17F0010E116EB8EF17F0D89009369C
:102F60000A360B360C360D360E360F361036112A51
:102F700010AEBDEF17F0BFEF17F0AEEF17F0D8901F
:102F800013361436153616361736183619361A36DD
:102F90000950015C0A5002580B5003580C50045859
:102FA0000D5005580E5006580F500758105008582D
:102FB000D8A0DDEF17F0DFEF17F0F0EF17F00950B2
:102FC000015E0A50025A0B50035A0C50045A0D501D
:102FD000055A0E50065A0F50075A1050085A1380BF
:102FE000D89010320F320E320D320C320B320A32C0
:102FF0000932112EBFEF17F01250D8B402EF18F0BB
:1030000004EF18F014EF18F01A1E191E181E171EE0
:10301000161E151E141E136C000E142215221622E5
:103020001722182219221A2213C001F014C002F02C
:1030300015C003F016C004F017C005F018C006F064
:1030400019C007F01AC008F0120092969298929A4E
:10305000000E956E949A10EC1EF0F7EC1DF0010E28
:10306000936E000E816E010E0001C06F010EA6EC82
:103070001DF0370E0001C26F100EC36F46EC1BF03F
:10308000990E0001C86F310EC76FA20EE82EFED751
:10309000C72FFCD7C82FFAD700F0010E0001C06F70
:1030A000010EA6EC1DF0130E0001C26F100EC36FCF
:1030B00046EC1BF0020E0001C06F010EA6EC1DF0E5
:1030C000990E0001C26F100EC36F46EC1BF0020E8A
:1030D0000001C06F030EA6EC1DF09D0E0001C26F33
:1030E000100EC36F46EC1BF0020E0001C06F040E01
:1030F000A6EC1DF0990E0001C26F100EC36F46ECD6
:103100001BF0020E0001C06F060EA6EC1DF09D0E16
:103110000001C26F100EC36F46EC1BF0020E0001DF
:10312000C06F070EA6EC1DF0070E0001C26F100E57
:10313000C36F46EC1BF09380F292F2889E9C9D8CAC
:10314000D09EF28EF28C0001E105E211D8A4ABEF23
:1031500018F0ADEF18F0B0EF18F0000E59EC1CF0BD
:10316000020E0001E119E211D8A4B9EF18F0BBEF8B
:1031700018F0A3EF18F0A251A311D8B4C2EF18F0C1
:10318000C4EF18F0E1EF18F0A051A111D8B4CBEFC3
:1031900018F0CDEF18F0D7EF18F0020E59EC1CF034
:1031A000000E0001A16F010EA06FA3EF18F0000E3A
:1031B00059EC1CF0000E0001A16F000EA06FA3EFF0
:1031C00018F0000E59EC1CF0A3EF18F007EF00F018
:1031D000000E126E08BEF1EF18F0EFEF18F003EFDB
:1031E00019F0081E071E061E051E041E031E021EE1
:1031F000016C000E0222032204220522062207226D
:103200000822010E126E10BE0AEF19F008EF19F035
:103210001AEF19F0101E0F1E0E1E0D1E0C1E0B1E97
:103220000A1E096C000E0A220B220C220D220E220D
:103230000F22102209500A100B100C100D100E1046
:103240000F101010D8B427EF19F029EF19F071EF13
:1032500019F0010E116E37EF19F0D89009360A36C1
:103260000B360C360D360E360F361036112A10AED0
:103270003CEF19F03EEF19F02DEF19F00950015C09
:103280000A5002580B5003580C5004580D50055862
:103290000E5006580F50075810500858D8A053EF3A
:1032A00019F055EF19F065EF19F00950015E0A5059
:1032B000025A0B50035A0C50045A0D50055A0E5026
:1032C000065A0F50075A1050085AD89010320F3231
:1032D0000E320D320C320B320A320932112E3EEF11
:1032E00019F01250D8B477EF19F079EF19F089EF8F
:1032F00019F0081E071E061E051E041E031E021ED0
:10330000016C000E0222032204220522062207225B
:10331000082201C001F002C002F003C003F004C0A3
:1033200004F005C005F006C006F007C007F008C0AD
:1033300008F01200000E0114096E000E02140A6E4D
:10334000800E03140B6E7F0E04140C6E09500A10CD
:103350000B100C10D8A4AFEF19F0B1EF19F0B9EFC2
:1033600019F0000E016E000E026E000E036E000ECC
:10337000046E000E0514096E000E06140A6E800E0F
:1033800007140B6E7F0E08140C6E09500A100B10F8
:103390000C10D8A4CEEF19F0D0EF19F0D8EF19F037
:1033A000000E056E000E066E000E076E000E086E13
:1033B00004AEDDEF19F0DFEF19F0E8EF19F0016C62
:1033C000021ED8B0022A031ED8B0032A800E04566B
:1033D00008AEEDEF19F0EFEF19F0F8EF19F0056C0A
:1033E000061ED8B0062A071ED8B0072A800E085637
:1033F000000E011A000E021A000E031A800E041AA3
:10340000000E051A000E061A000E071A800E081A82
:103410000550015C065002580750035808500458E4
:10342000D8B015EF1AF017EF1AF01AEF1AF0D8907B
:103430001BEF1AF0D880120003500410D8B423EF09
:103440001AF025EF1AF02EEF1AF003500410D8A44A
:103450002CEF1AF02EEF1AF033EF1AF00150B3EC04
:103460001EF080EF1AF020EE04F00350D92604502D
:10347000DA22DE50DE10D8B440EF1AF042EF1AF034
:103480005DEF1AF020EE04F00350D9260450DA2242
:1034900010EE02F00350E1260450E222DE50E65C1A
:1034A000E650800A096EDE50800A0958D8B05BEFFA
:1034B0001AF05DEF1AF080EF1AF020EE02F00350E0
:1034C000D9260450DA22DECF05F0DDCF06F003C0A6
:1034D000D9FF04C0DAFFDECF07F0DDCF08F00550DA
:1034E0000724D96E06500820DA6E01C0DFFF20EEF7
:1034F00002F00350D9260450DA22DE2A000EDD2223
:10350000120000019AA187EF1AF089EF1AF093EFE9
:103510001AF013C00AF014C00BF011C00CF012C066
:103520000DF064EC1DF016BE98EF1AF09AEF1AF049
:10353000A0EF1AF015C01AF016C01BF0A4EF1AF095
:10354000000E1B6E000E1A6E000E196E000E186E25
:10355000B6EF1AF0000E026E200E016E11C003F0DD
:1035600012C004F01CEC1AF0184A192A1A50185C00
:103570001950800A176E1B50800A1758D8A0C3EF45
:103580001AF0C5EF1AF0AAEF1AF000019AB1CBEFCA
:103590001AF0CDEF1AF0D7EF1AF013C00AF014C0EA
:1035A0000BF011C00CF012C00DF064EC1DF013C054
:1035B00001F014C002F0C2EC1DF01A500124116E8B
:1035C0001B500220126E1200000E066E04BEEDEFBC
:1035D0001AF0EBEF1AF0F3EF1AF0036C041ED8B0F8
:1035E000042A010E066E02BEFAEF1AF0F8EF1AF086
:1035F00000EF1BF0016C021ED8B0022A010E061A61
:10360000000E086E000E076E03500410D8B40BEFC6
:103610001BF00DEF1BF035EF1BF0010E056E15EFE3
:103620001BF0D89003360436052A04AE1AEF1BF0BF
:103630001CEF1BF011EF1BF0D89007360836035033
:10364000015C04500258D8A028EF1BF02AEF1BF0B1
:103650002FEF1BF00350015E0450025A0780D890F0
:1036600004320332052E1CEF1BF00650D8B43BEF9A
:103670001BF03DEF1BF041EF1BF0076C081ED8B0AC
:10368000082A07C001F008C002F01200000E000175
:10369000C66F85EF1BF00001C651C225C46F000E36
:1036A000C321C56FC4C0F6FFC5C0F7FF000EF86E9A
:1036B0000F0EF76403D00800F55005D0F6CFE1FFF8
:1036C000F7CFE2FFE75022EC1EF00001E42B110ED1
:1036D000E419D8A46EEF1BF070EF1BF083EF1BF022
:1036E000010EE46FE32B030EE319D8A47AEF1BF06D
:1036F0007CEF1BF07EEF1BF0010EE36FE3C0C0F028
:10370000E451A6EC1DF00001C62BC651C225C46FC2
:10371000000EC321C56FC4C0F6FFC5C0F7FF000E81
:10372000F86E0F0EF76403D00800F55005D0F6CF01
:10373000E1FFF7CFE2FFE7500009D8A4A2EF1BF0AA
:10374000A4EF1BF04BEF1BF01200000E096EE1EF2F
:103750001BF009500524076E000E0620086E07C0F6
:10376000F6FF08C0F7FF000EF86E0F0EF76403D0E7
:103770000800F55005D0F6CFE1FFF7CFE2FFE750A4
:1037800045EC1EF00001E42B110EE419D8A4CBEF98
:103790001BF0CDEF1BF0E0EF1BF0010EE46FE32B0D
:1037A000030EE319D8A4D7EF1BF0D9EF1BF0DBEF22
:1037B0001BF0010EE36FE3C003F0E451DDEC1DF0FC
:1037C000092A09500524076E000E0620086E07C05E
:1037D000F6FF08C0F7FF000EF86E0F0EF76403D077
:1037E0000800F55005D0F6CFE1FFF7CFE2FFE75034
:1037F0000009D8A4FEEF1BF000EF1CF0A9EF1BF0AE
:103800001200000E066E02BE0AEF1CF008EF1CF05C
:1038100010EF1CF0016C021ED8B0022A010E066ED9
:1038200004BE17EF1CF015EF1CF01BEF1CF0036C2F
:10383000041ED8B0042A03500410D8B422EF1CF0A0
:1038400024EF1CF048EF1CF0010E056E2CEF1CF06D
:10385000D89003360436052A04AE31EF1CF033EF5E
:103860001CF028EF1CF00350015C04500258D8A053
:103870003CEF1CF03EEF1CF042EF1CF00350015EE9
:103880000450025AD89004320332052E33EF1CF054
:103890000650D8B44EEF1CF050EF1CF054EF1CF063
:1038A000016C021ED8B0022A01C001F002C002F071
:1038B00012000001BF6FBFC0BEF0010E0001BE17B5
:1038C000BE47BE47C250BE19FB0BBE19C26EBFC079
:1038D000BEF0D890BE33010EBE17BE47BE47BE47EE
:1038E000C250BE19F70BBE19C26EBFC0BEF0D89051
:1038F000BE33D890BE33010EBE17BE3BC250BE19B8
:10390000EF0BBE19C26EBFC0BEF0D890BE33D890C8
:10391000BE33D890BE33010EBE17BE3BBE47C25069
:10392000BE19DF0BBE19C26EC282120052C056F021
:1039300053C057F0000E0001956F000E946FB4EF66
:103940001CF050C040F051C041F0560E426E000EC7
:10395000436E54C044F055C045F0ADEC15F04050F6
:10396000000194274150952356C0F6FF57C0F7FF3A
:103970000800F5500009D8A4C0EF1CF0C2EF1CF0FD
:10398000A1EF1CF094C050F095C051F0120066EC0D
:103990001EF09FEC1EF0000E00019D6F000E9C6F4C
:1039A000000EE26F030EE16F010E036E010EDDECFF
:1039B0001DF06B0E056E100E066EA5EC1BF0020ED0
:1039C000036E010EDDEC1DF05A0E056E100E066E34
:1039D000A5EC1BF092EC1EF0829A110E936E100E65
:1039E000816EF290F28612005C0E5E6E000E5F6ECB
:1039F00058C060F059C061F0000E636E000E626E38
:103A0000000E656E000E646E600E506E000E516EFC
:103A10005AC052F05BC053F05E0E546E000E556EED
:103A200096EC1CF062505824D96E63505920DA6E1F
:103A3000000EDF6E1200F29EF29C000E0001E26F9B
:103A4000040EE16F010E036E010EDDEC1DF0490E58
:103A5000056E100E066EA5EC1BF0020E036E010E35
:103A6000DDEC1DF07C0E056E100E066EA5EC1BF055
:103A700092EC1EF0829A000E936E81683EEF1DF06C
:103A80001200080EF66E3D0EF76E000EF86E00EE98
:103A9000C9F010EE1CF00900F5CFEEFFE550E15043
:103AA000FAE101EE00F0200EEE6AE806FDE100EE1C
:103AB00080F0280EEE6AE806FDE17E907E92000E10
:103AC000F86E000125EF18F0000E106E000E0F6E5C
:103AD00075EF1DF00EC001F0026A0CC003F00DC0BE
:103AE00004F01CEC1AF00F4A102A0F500A24D96E69
:103AF00010500B20DA6EDF500E6E0E50D8A483EFFC
:103B00001DF085EF1DF06AEF1DF0120014BE93EF5B
:103B10001DF0145006E11304D8B091EF1DF093EF9F
:103B20001DF0A1EF1DF013C015F014C016F0151E06
:103B3000161E154A162A15C013F016C014F0A5EF6C
:103B40001DF013C013F014C014F012000001C16F77
:103B50000001C005D8A4AFEF1DF0B1EF1DF0B8EF24
:103B60001DF0C1050F0B800F34EC1EF0BDEF1DF0F2
:103B7000C1050F0BC00F34EC1EF0C1C0E4F0C0C093
:103B8000E3F0120001C003F002C004F0CAEF1DF020
:103B9000014A022A01C0D9FF02C0DAFFDF50D8A4CF
:103BA000D4EF1DF0D6EF1DF0C8EF1DF00350015CFF
:103BB000016E04500258026E1200046E0304D8A471
:103BC000E4EF1DF0E6EF1DF0EDEF1DF004040F0B28
:103BD000800F56EC1EF0F2EF1DF004040F0BC00F27
:103BE00056EC1EF004C0E4F003C0E3F0120096921D
:103BF0009694000E956E84928494380E34EC1EF0E8
:103C0000080E34EC1EF00C0E34EC1EF0060E34ECF4
:103C10001EF0010E34EC1EF0800E34EC1EF012008B
:103C2000C186C184C192C190C198C19A928092828A
:103C30009284C084C082C090C09AC098C086C08E52
:103C4000C28012000001BE6F8492848483CFBFF0D3
:103C5000BEC083FF8482030EE82EFED700F084925C
:103C60008494BFC083FF12000001BE6F84928494CD
:103C700083CFBFF0BEC083FF8482030EE82EFED741
:103C800000F08492BFC083FF1200016E849284848E
:103C900083CF02F001C083FF8482030EE82EFED79B
:103CA00000F08492849402C083FF1200016E84921B
:103CB000849483CF02F001C083FF8482030EE82E38
:103CC000FED700F0849202C083FF1200000E0001B4
:103CD0009F6F000E9E6FF29AF294D59E060ED56EDF
:103CE000600ED76E600ED66E1200000E00019F6F40
:103CF000000E9E6F060ED56E600ED76E600ED66EED
:103D0000F294F28AD58E12000200FFFFFFFFFFFF40
:103D100003005A00FFFFFFFFFFFFFFFFFFFFFFFF52
:103D200001000101000E836E80868098809A809643
:103D30008088809A80968098808A809A12009D90D0
:103D40009E90CD90480ECD6ED70ECF6ED70ECE6E14
:103D50001200480ECD6ED70ECF6ED70ECE6E9E904F
:083D60009D80CD8012001200CD
:020000040020DA
:08000000FFFFFFFFFFFFFFFF00
:020000040030CA
:0E000000FF081F1EFF8381FF0FC00FE00F409F
:00000001FF
